CLMLFR RRDC OECGROUP  2312282200001
1BMOU564902202312282011A  BELEN    NM785121000LSLHGME2023122822RRDCBNSF  MEMPHIS  TN439900000MEMPHIS  TN439900000V  20231227236006 USBLN USMEM 0*CMDUGGZ2010179      *CMDU
1TCKU452817202312282011A  BELEN    NM785121000LSLHGME2023122822RRDCBNSF  STLOUIS  MO567500000STLOUIS  MO567500000V  20231227236006 USBLN USSTL 3*CMDUSHZ5804346      *CMDU
1TRHU102238202312282011A  BELEN    NM785121000LSLHGME2023122822RRDCBNSF  MEMPHIS  TN439900000MEMPHIS  TN439900000V  20231227236006 USBLN USMEM 5*CMDUSHZ5846987      *CMDU
1CMAU041095202312282011A  BELEN    NM785121000LSLHGME2023122822RRDCBNSF  MEMPHIS  TN439900000MEMPHIS  TN439900000V  20231227236006 USBLN USMEM 1*CMDUXIA1230499      *CMDU
1GESU111864202312282011A  BELEN    NM785121000LSLHGME2023122822RRDCBNSF  STLOUIS  MO567500000STLOUIS  MO567500000V  20231227236006 USBLN USSTL 6*CMDUAYN1070567      *CMDU
1TRHU868439202312282011A  BELEN    NM785121000LSLHGME2023122822RRDCBNSF  MEMPHIS  TN439900000MEMPHIS  TN439900000V  20231227236006 USBLN USMEM 9*CMDUSGN1971220      *CMDU
1TCNU531673202312282011A  BELEN    NM785121000LSLHGME2023122822RRDCBNSF  STLOUIS  MO567500000STLOUIS  MO567500000V  20231227236006 USBLN USSTL 8*CMDUCHN0698633      *CMDU
1CMAU449289202312282011A  BELEN    NM785121000LSLHGME2023122822RRDCBNSF  MEMPHIS  TN439900000MEMPHIS  TN439900000V  20231227236006 USBLN USMEM 7*CMDUSGN1969674      *CMDU
1TCLU949468202312282011A  BELEN    NM785121000LSLHGME2023122822RRDCBNSF  ALLIANCE TX668100000ALLIANCE TX668100000V  20231230016006 USBLN USHXC 5*MEDUUQ430602        *MEDU
1TCNU817764202312282011A  BELEN    NM785121000LSLHGME2023122822RRDCBNSF  STLOUIS  MO567500000STLOUIS  MO567500000V  20231227236006 USBLN USSTL 1*CMDUCHN0673815      *CMDU
1SLSU604129202312282011A  BELEN    NM785121000LSLHGME2023122822RRDCBNSF  MEMPHIS  TN439900000MEMPHIS  TN439900000V  20231227236006 USBLN USMEM 2*CMDUSGN1960438      *CMDU
EOM00000011
